:100000000C9432000C941C060C9445060C946E065D
:100010000C9444000C9444000C9444000C94440050
:100020000C9444000C9444000C9444000C94440040
:100030000C9444000C9444000C9444000C94440030
:100040000C9444000C9444000C9444000C94440020
:100050000C944400FA0030015E018C01BA01F001F9
:100060001E02550211241FBECFE5D8E0DEBFCDBF72
:1000700020E0A0E6B0E001C01D92AF39B207E1F781
:100080000E94DF030C94810B0C94000089E08093A4
:10009000600086E990E00E94140380E790E00E94EF
:1000A00065038CE790E00E94650383E790E00E947F
:1000B000650388E890E00E94250308951F93CF937D
:1000C000DF93E0E7F0E0C1E0C08311821282ECE749
:1000D000F0E0C083C1831282E3E7F0E0C083D2E0A6
:1000E000D1831282E8E8F0E0C08313E0118312822A
:1000F00080E790E00E94A9038CE790E00E94A903AA
:1001000083E790E00E94A90388E890E00E94A90399
:10011000E7E7F0E01282108211821482CF010E9480
:10012000AA02E4E9F0E010821183E6E9F0E0C2837C
:10013000D0831182C683D483C583EFE7F0E0C28306
:10014000D0831183C683D483D583EBE8F0E0C283E8
:10015000D08385E08183C683D48384E08583E7E60A
:10016000F0E0C283D08387E08183C683D48386E0B6
:10017000858386E990E00E94CC028FE790E00E94A0
:10018000CC028BE890E00E94CC0287E690E00E94CF
:10019000CC0284E990E00E949E0586E490E00E94F3
:1001A0001706DF91CF911F91089566E770E087E70A
:1001B00090E00E94B20280917600813069F48091D3
:1001C0006000811109C081E08093600060E070E010
:1001D0008AE794E40E949107E09160008E2F90E0FE
:1001E000FC013197E830F10508F08DC1E65DFF4F65
:1001F0000C94670B82E08093600010929E00109236
:1002000087001092930010926F0062E386E990E0FD
:100210000E94E30262E38FE790E00E94E30262E360
:100220008BE890E00E94E30262E387E690E00E94A0
:10023000E30280E790E00E9425038CE790E00E94B3
:10024000650383E790E00E94650388E890E00E94E0
:10025000650360E070E88BE395E40E9491070895E0
:1002600083E08093600060E086E990E00E94E30212
:1002700060E08FE790E00E94E30260E08BE890E0AE
:100280000E94E30260E087E690E00E94E30280E7DC
:1002900090E00E9465038CE790E00E94250383E7CD
:1002A00090E00E94650388E890E00E94650360E0AA
:1002B00070E08AEF93E40E949107089584E08093B0
:1002C000600062E386E990E00E94E30262E38FE768
:1002D00090E00E94E30262E38BE890E00E94E30278
:1002E00062E387E690E00E94E30280E790E00E94EC
:1002F00065038CE790E00E94650383E790E00E942D
:10030000250388E890E00E94650360E070E08AEFD2
:1003100093E40E949107089585E08093600060E077
:1003200086E990E00E94E30260E08FE790E00E949F
:10033000E30260E08BE890E00E94E30260E087E681
:1003400090E00E94E30280E790E00E9465038CE762
:1003500090E00E94250383E790E00E94650388E80F
:1003600090E00E94650360E070E08AEF93E40E94F1
:100370009107089586E08093600010929E0010928D
:1003800087001092930010926F006EE186E990E072
:100390000E94E3026EE18FE790E00E94E3026EE1CB
:1003A0008BE890E00E94E3026EE187E690E00E9415
:1003B000E30280E790E00E9425038CE790E00E9432
:1003C000650383E790E00E94650388E890E00E945F
:1003D000650360E070E08AEF94E40E94910708955D
:1003E00087E08093600060E086E990E00E94E3028D
:1003F00060E08FE790E00E94E30260E08BE890E02D
:100400000E94E30260E087E690E00E94E30280E75A
:1004100090E00E9465038CE790E00E94250383E74B
:1004200090E00E94650388E890E00E94650360E028
:1004300070E08AEF93E40E949107089588E080932A
:10044000600010929E001092870081E080939300DC
:1004500080936F006EE186E990E00E94E3026EE116
:100460008FE790E00E94E3026EE18BE890E00E944B
:10047000E3026EE187E690E00E94E30280E790E00D
:100480000E9465038CE790E00E94650383E790E09B
:100490000E94250388E890E00E94650360E070E018
:1004A0008AEF93E40E949107089581E080936000B1
:1004B00060E086E990E00E94E30260E08FE790E070
:1004C0000E94E30260E08BE890E00E94E30260E0BB
:1004D00087E690E00E94E30280E790E00E946503D7
:1004E0008CE790E00E94250383E790E00E9465037B
:1004F00088E890E00E94650360E070E08AEF93E492
:100500000E94910708951092600060E086E990E0F3
:100510000E94E30260E08FE790E00E94E30260E067
:100520008BE890E00E94E30260E087E690E00E94A2
:10053000E30280E790E00E9465038CE790E00E9470
:10054000650383E790E00E94650388E890E00E94DD
:10055000650308950E94E403882311F082E0089562
:1005600080E00895CF93DF93EC010E947C04811119
:100570000FC08C81811106C09B8181E0913049F0D0
:1005800080E007C09B8181E0913019F480E001C0D8
:1005900082E0DF91CF910895CF93DF93EC010E9429
:1005A000E40381110AC0CE0104960E94E403811184
:1005B00006C00E940B0980E003C082E001C082E017
:1005C000DF91CF910895CF93DF93EC01862F0E94A6
:1005D00012098885882319F0813069F018C01B82C0
:1005E00081E08F83CE010E940205CE0104960E9415
:1005F000020580E016C081E08B831F82CE010E943D
:100600000205CE0104960E94020580E00AC01B820A
:100610001F82CE010E940205CE0104960E940205AF
:1006200081E0DF91CF910895CF93DF93EC010E9499
:100630001F091B821F82CE010E940205CE01049673
:100640000E940205DF91CF910895FC0190819130C5
:1006500099F028F09230E9F0933041F134C02BB397
:1006600081E090E0018002C0880F991F0A94E2F7B0
:10067000822B8BBB80E0089528B381E090E001805D
:1006800002C0880F991F0A94E2F7822B88BB80E092
:10069000089525B381E090E0018002C0880F991F82
:1006A0000A94E2F7822B85BB80E0089522B381E0B3
:1006B00090E0018002C0880F991F0A94E2F7822B14
:1006C00082BB80E0089582E00895FC019081913022
:1006D000A1F028F09230F9F0933059F138C02BB3E3
:1006E00081E090E0018002C0880F991F0A94E2F730
:1006F000809582238BBB80E0089528B381E090E051
:10070000018002C0880F991F0A94E2F78095822326
:1007100088BB80E0089525B381E090E0018002C0AD
:10072000880F991F0A94E2F78095822385BB80E0A9
:10073000089522B381E090E0018002C0880F991FE4
:100740000A94E2F78095822382BB80E0089582E0DC
:1007500008950F931F93CF93DF9300D000D0CDB7B0
:10076000DEB78C0119821A821B821C82FC018081F7
:10077000898381818A8381E08B83CE0101960E94E7
:10078000E403811110C0F8018281813029F4C8018D
:100790000E94250380E00AC0811107C0C8010E94A1
:1007A000650380E003C081E001C080E00F900F90FE
:1007B0000F900F90DF91CF911F910F9108950E949C
:1007C0005E000E94D500FDCFFC019081913049F17F
:1007D00038F0923009F446C0933009F463C082C007
:1007E000828181110EC02AB381E090E0018002C0B5
:1007F000880F991F0A94E2F7809582238ABB80E0D4
:100800000895813009F070C02AB381E090E0018042
:1008100002C0880F991F0A94E2F7822B8ABB80E0FE
:100820000895828181110EC027B381E090E001809C
:1008300002C0880F991F0A94E2F78095822387BB34
:1008400080E00895813009F051C027B381E090E045
:10085000018002C0880F991F0A94E2F7822B87BBA0
:1008600080E00895828181110EC024B381E090E080
:10087000018002C0880F991F0A94E2F780958223B5
:1008800084BB80E00895813099F524B381E090E045
:10089000018002C0880F991F0A94E2F7822B84BB63
:1008A00080E00895828181110EC021B381E090E043
:1008B000018002C0880F991F0A94E2F78095822375
:1008C00081BB80E008958130A9F421B381E090E0FC
:1008D000018002C0880F991F0A94E2F7822B81BB26
:1008E00080E0089581E0089580E0089580E0089513
:1008F00080E0089580E00895FC019081828181115B
:1009000075C0913011F130F09230D1F1933009F48B
:1009100052C06EC089B3218190E0022E02C095952D
:1009200087950A94E2F780FF04C081E0838380E02A
:10093000089589B390E002C0959587952A95E2F7CE
:1009400080FD58C0138280E0089586B3218190E035
:10095000022E02C0959587950A94E2F780FF04C0A5
:1009600081E0838380E0089586B390E002C095958E
:1009700087952A95E2F780FD3FC0138280E00895B5
:1009800083B3218190E0022E02C0959587950A9449
:10099000E2F780FF04C081E0838380E0089583B3A1
:1009A00090E002C0959587952A95E2F780FD26C0D4
:1009B000138280E0089580B3218190E0022E02C06E
:1009C000959587950A94E2F780FF04C081E08383C0
:1009D00080E0089580B390E002C0959587952A95B0
:1009E000E2F780FD0DC0138280E0089582E0089553
:1009F00081E0089580E0089580E0089580E0089502
:100A000080E00895FC0190818281813009F08AC0E4
:100A1000913041F138F0923009F444C0933009F438
:100A200061C082C08381813069F42BB381E090E0A2
:100A3000018002C0880F991F0A94E2F7822B8BBBBA
:100A400080E00895811172C02BB381E090E00180B5
:100A500002C0880F991F0A94E2F7809582238BBB0E
:100A600080E008958381813069F428B381E090E0CB
:100A7000018002C0880F991F0A94E2F7822B88BB7D
:100A800080E00895811154C028B381E090E0018096
:100A900002C0880F991F0A94E2F78095822388BBD1
:100AA00080E008958381813069F425B381E090E08E
:100AB000018002C0880F991F0A94E2F7822B85BB40
:100AC00080E00895811136C025B381E090E0018077
:100AD00002C0880F991F0A94E2F78095822385BB94
:100AE00080E008958381813069F422B381E090E051
:100AF000018002C0880F991F0A94E2F7822B82BB03
:100B000080E00895811118C022B381E090E0018057
:100B100002C0880F991F0A94E2F78095822382BB56
:100B200080E0089582E0089581E0089580E00895CE
:100B300080E0089580E0089580E00895FC019FB76B
:100B40009F779FBF9081913081F120F0923009F41E
:100B500057C069C081B38B7F81BB8BB780648BBF6B
:100B60008181813069F028F0823089F08330B1F0E2
:100B70005AC085B78E7F85BF85B78D7F85BF53C02F
:100B800085B7816085BF85B78D7F85BF4CC085B730
:100B90008E7F85BF85B7826085BF45C085B7816080
:100BA00085BF85B7826085BF3EC081B3877F81BB2B
:100BB0008BB780688BBF8181813069F028F08230EB
:100BC00089F08330B1F02FC085B78B7F85BF85B7A3
:100BD000877F85BF28C085B7846085BF85B7877F3D
:100BE00085BF21C085B78B7F85BF85B7886085BFEE
:100BF0001AC085B7846085BF85B7886085BF13C07C
:100C000087B3877F87BB8BB780628BBF8181823040
:100C100019F0833029F007C084B78F7B84BF03C0ED
:100C200084B7806484BF8FB780688FBF0895909326
:100C300066008093650008951F920F920FB60F9281
:100C400011242F933F934F935F936F937F938F93D1
:100C50009F93AF93BF93EF93FF93E0916500F09163
:100C60006600309709F00995FF91EF91BF91AF9120
:100C70009F918F917F916F915F914F913F912F91B4
:100C80000F900FBE0F901F9018951F920F920FB6E6
:100C90000F9211242F933F934F935F936F937F9302
:100CA0008F939F93AF93BF93EF93FF93E091630074
:100CB000F0916400309709F00995FF91EF91BF9191
:100CC000AF919F918F917F916F915F914F913F91E4
:100CD0002F910F900FBE0F901F9018951F920F929B
:100CE0000FB60F9211242F933F934F935F936F93FF
:100CF0007F938F939F93AF93BF93EF93FF93E09175
:100D00006100F0916200309709F00995FF91EF9131
:100D1000BF91AF919F918F917F916F915F914F9113
:100D20003F912F910F900FBE0F901F901895CF926B
:100D3000DF92EF92FF92CF93DF936B017C01EA0188
:100D40002CEE31E143E853E40E948E0918160CF4AE
:100D500053C028EB3EE145E85EE3C701B6010E94BF
:100D60008E0918162CF081E090E09983888345C0A5
:100D700023E333E343E050E4C701B6010E948E0948
:100D8000181634F088E090E09983888381E035C0BC
:100D90002DE33AE043E851E4C701B6010E948E0911
:100DA000181634F080E490E09983888381E025C0B0
:100DB0002BE734E143E852E4C701B6010E948E09F3
:100DC000181634F080E091E09983888381E015C0A3
:100DD0002CEE31E143E853E4C701B6010E948E09CD
:100DE000181634F080E094E09983888381E005C090
:100DF0001982188281E001C080E0DF91CF91FF90DD
:100E0000EF90DF90CF900895CF93DF93EB01803484
:100E1000910581F130F48130910561F00897D1F0AE
:100E200059C0811561E09607A9F18115944009F434
:100E300041C050C068EB7EE185E89EE30E94210935
:100E40002FE632E143E85AE30E9493090E94050A23
:100E5000688341C063E373E383E090E40E94210967
:100E60002FE632E143E05CE30E9493090E94050A09
:100E7000688331C06DE37AE083E891E40E94210940
:100E80002FE632E143E85DE30E9493090E94050AE0
:100E9000688321C06BE774E183E892E40E94210932
:100EA0002FE632E143E85EE30E9493090E94050ABF
:100EB000688311C06CEE71E183E893E40E9421091C
:100EC0002FE632E143E85FE30E9493090E94050A9E
:100ED000688301C01882DF91CF9108958034910515
:100EE000A9F030F48130910559F0089761F017C0EE
:100EF000811521E0920769F08115944069F00FC0D7
:100F000081E883BF089582E883BF089583E883BFA3
:100F1000089584E883BF089585E883BF089513BECC
:100F200008958F929F92AF92BF92CF92DF92EF92ED
:100F3000FF921F93CF93DF93CDB7DEB727970FB6FE
:100F4000F894DEBF0FBECDBF6B017C01AE014F5FD9
:100F50005F4F0E949706882371F0A7019601BE019A
:100F60006D5F7F4F89819A810E9404071C821D82D8
:100F70001E821F8211C080E094E09A8389832CEE48
:100F800031E143E853E4C701B6010E9493096C8341
:100F90007D838E839F831B82CC80DD80EE80FF80EB
:100FA000C701B6010E94050A162F70E080E090E0AC
:100FB0000E94360A9B01AC01C701B6010E942109BB
:100FC0002CEE31E143E853E40E94E60A0E94050A50
:100FD000F62E8B8182BF111108C089819A810E94EF
:100FE0006E0708B600FEFDCF00C185E883BF07C0CD
:100FF00008B600FEFDCF115088B7816088BF11117F
:10100000F7CFFF2009F453C06F2D70E080E090E02F
:101010000E94360A4B015C0128EB3EE145E85EE3A5
:101020000E948E0918162CF081E090E09A83898343
:101030003EC023E333E343E050E4C501B4010E9422
:101040008E0918162CF088E090E09A8389832FC0CF
:101050002DE33AE043E851E4C501B4010E948E0952
:1010600018162CF080E490E09A83898320C02BE747
:1010700034E143E852E4C501B4010E948E09181618
:101080002CF080E091E09A83898311C02CEE31E14D
:1010900043E853E4C501B4010E948E0918162CF0F0
:1010A00080E094E09A83898302C01A821982898140
:1010B0009A818034910509F445C030F4813091055E
:1010C00069F0089729F18CC0811521E0920709F495
:1010D00053C08115944009F469C082C06F2D70E03F
:1010E00080E090E00E94360A9B01AC0168EB7EE153
:1010F00085E89EE30E9421092FE632E143E85AE3A6
:101100000E9493090E94050A62BF81E883BF6AC0FA
:101110006F2D70E080E090E00E94360A9B01AC01E8
:1011200063E373E383E090E40E9421092FE632E158
:1011300043E05CE30E9493090E94050A62BF82E8D3
:1011400083BF50C06F2D70E080E090E00E94360AAF
:101150009B01AC016DE37AE083E891E40E942109F0
:101160002FE632E143E85DE30E9493090E94050AFD
:1011700062BF83E883BF36C06F2D70E080E090E0EF
:101180000E94360A9B01AC016BE774E183E892E4AC
:101190000E9421092FE632E143E85EE30E949309B1
:1011A0000E94050A62BF84E883BF1CC06F2D70E0F7
:1011B00080E090E00E94360A9B01AC016CEE71E188
:1011C00083E893E40E9421092FE632E143E85FE3DC
:1011D0000E9493090E94050A62BF85E883BF02C08E
:1011E00012BE13BE08B600FEFDCF88B7816088BF6F
:1011F00013BE27960FB6F894DEBF0FBECDBFDF91AA
:10120000CF911F91FF90EF90DF90CF90BF90AF9064
:101210009F908F90089514BC81B3806881BB88E64D
:1012200085BD08952FEF829FC001112464E670E010
:101230000E94530B63BD85B5826085BD089515BCC2
:1012400008955058BB27AA270E9439090C94AC0A6C
:101250000E949E0A38F00E94A50A20F039F49F3FB0
:1012600019F426F40C949B0A0EF4E095E7FB0C9419
:10127000950AE92F0E94BD0A58F3BA17620773074F
:101280008407950720F079F4A6F50C94DF0A0EF494
:10129000E0950B2EBA2FA02D0B01B90190010C0186
:1012A000CA01A0011124FF27591B99F0593F50F49E
:1012B000503E68F11A16F040A22F232F342F4427F6
:1012C000585FF3CF469537952795A795F0405395EE
:1012D000C9F77EF41F16BA0B620B730B840BBAF0BE
:1012E0009150A1F0FF0FBB1F661F771F881FC2F729
:1012F0000EC0BA0F621F731F841F48F4879577953D
:101300006795B795F7959E3F08F0B0CF9395880FF6
:1013100008F09927EE0F9795879508950E94710A16
:1013200008F481E008950E94A7090C94AC0A0E9479
:10133000A50A58F00E949E0A40F029F45F3F29F068
:101340000C94950A51110C94E00A0C949B0A0E948B
:10135000BD0A68F39923B1F3552391F3951B550BFF
:10136000BB27AA2762177307840738F09F5F5F4F78
:10137000220F331F441FAA1FA9F335D00E2E3AF0B7
:10138000E0E832D091505040E695001CCAF72BD0CF
:10139000FE2F29D0660F771F881FBB1F2617370720
:1013A0004807AB07B0E809F0BB0B802DBF01FF2752
:1013B00093585F4F3AF09E3F510578F00C94950A90
:1013C0000C94E00A5F3FE4F3983ED4F3869577955A
:1013D0006795B795F7959F5FC9F7880F911D96950B
:1013E000879597F90895E1E0660F771F881FBB1F67
:1013F000621773078407BA0720F0621B730B840B14
:10140000BA0BEE1F88F7E09508950E94C50A88F090
:101410009F5798F0B92F9927B751B0F0E1F0660FB8
:10142000771F881F991F1AF0BA95C9F714C0B130F9
:1014300091F00E94DF0AB1E008950C94DF0A672F53
:10144000782F8827B85F39F0B93FCCF38695779528
:101450006795B395D9F73EF4909580957095619511
:101460007F4F8F4F9F4F0895E89409C097FB3EF43C
:1014700090958095709561957F4F8F4F9F4F9923E1
:10148000A9F0F92F96E9BB279395F695879577955F
:101490006795B795F111F8CFFAF4BB0F11F460FF1F
:1014A0001BC06F5F7F4F8F4F9F4F16C0882311F077
:1014B00096E911C0772321F09EE8872F762F05C08B
:1014C000662371F096E8862F70E060E02AF09A9526
:1014D000660F771F881FDAF7880F9695879597F91B
:1014E0000895990F0008550FAA0BE0E8FEEF1616B5
:1014F0001706E807F907C0F012161306E407F50708
:1015000098F0621B730B840B950B39F40A2661F07B
:10151000232B242B252B21F408950A2609F4A1401E
:10152000A6958FEF811D811D089597F99F6780E82B
:1015300070E060E008959FEF80EC089500240A9425
:101540001616170618060906089500240A9412169E
:101550001306140605060895092E0394000C11F4D1
:10156000882352F0BB0F40F4BF2B11F460FF04C07E
:101570006F5F7F4F8F4F9F4F089557FD9058440FD7
:10158000551F59F05F3F71F04795880F97FB991FE2
:1015900061F09F3F79F0879508951216130614069F
:1015A000551FF2CF4695F1DF08C01616170618062C
:1015B000991FF1CF86957105610508940895E89407
:1015C000BB2766277727CB0197F908950E94F90A70
:1015D0000C94AC0A0E949E0A38F00E94A50A20F0E2
:1015E000952311F00C94950A0C949B0A11240C94E9
:1015F000E00A0E94BD0A70F3959FC1F3950F50E079
:10160000551F629FF001729FBB27F00DB11D639FB4
:10161000AA27F00DB11DAA1F649F6627B00DA11D5A
:10162000661F829F2227B00DA11D621F739FB00D00
:10163000A11D621F839FA00D611D221F749F332770
:10164000A00D611D231F849F600D211D822F762F09
:101650006A2F11249F5750409AF0F1F088234AF0E6
:10166000EE0FFF1FBB1F661F771F881F9150504052
:10167000A9F79E3F510580F00C94950A0C94E00A5E
:101680005F3FE4F3983ED4F3869577956795B795D9
:10169000F795E7959F5FC1F7FE2B880F911D9695F3
:1016A000879597F9089597FB072E16F4009407D0B5
:1016B00077FD09D00E946D0B07FC05D03EF4909594
:1016C00081959F4F0895709561957F4F0895EE0F16
:1016D000FF1F0590F491E02D0994AA1BBB1B51E15B
:1016E00007C0AA1FBB1FA617B70710F0A61BB70B92
:1016F000881F991F5A95A9F780959095BC01CD0137
:061700000895F894FFCFEC
:00000001FF
