:100000000C942A000C949C100C94CF100C94470074
:100010000C9447000C9447000C9447000C94470044
:100020000C9447000C9447000C9447000C94470034
:100030000C9447000C9447000C9447000C94470024
:100040000C9447000C9447000C9402110C94470048
:100050000C94470011241FBECFE5D4E0DEBFCDBF16
:1000600011E0A0E6B0E0EEE4FDE202C005900D92E2
:10007000A437B107D9F711E0A4E7B1E001C01D92A0
:10008000AE38B107E1F70E94FC120C94A5160C944F
:100090000000EF92FF920F931F937B018C0120E0F1
:1000A00030E040E05FE40E94C50388238CF0C80183
:1000B000B70120E030E040E05FE40E94C1010E940F
:1000C00083049B01AC01205030404040504806C0A2
:1000D000C801B7010E9483049B01AC01B901CA01A8
:1000E0001F910F91FF90EF900895A0E0B0E0EBE733
:1000F000F0E00C946E16DC012B01FA019C91923019
:1001000008F439C1EB018881823008F433C194309E
:1001100069F4843009F02FC111969C91119789815F
:10012000981709F428C1A0E6B0E025C1843009F48D
:1001300021C18230A9F4923009F01DC19A01AD01AC
:1001400088E0EA010990AE01E90109929E0181501F
:10015000C1F7E201898111969C918923818308C1AD
:10016000923009F407C112962D903C901397EB0141
:100170008A819B811496AD90BD90CD90DC901797AD
:10018000EC80FD800E811F819101281B390BB90184
:1001900037FF04C066277727621B730B6032710537
:1001A0000CF061C0121613066CF537014801062EDB
:1001B00004C096948794779467940A94D2F721E0C8
:1001C00030E040E050E004C0220F331F441F551FB1
:1001D0006A95D2F721503040404050402E213F21B7
:1001E00040235123211531054105510521F021E01E
:1001F00030E040E050E079018A01E628F72808293C
:1002000019293CC0232BD1F1260E371E350146019A
:10021000062E04C096948794779467940A94D2F734
:1002200021E030E040E050E004C0220F331F441FC3
:10023000551F6A95D2F721503040404050402A2146
:100240003B214C215D21211531054105510521F04E
:1002500021E030E040E050E059016A01A628B728CB
:10026000C828D9280BC0821593052CF01C01AA249C
:10027000BB24650103C0EE24FF24870111969C91E5
:10028000D20111968C91981709F445C0992339F041
:10029000A80197012A193B094C095D0906C0A6016E
:1002A00095012E193F09400B510B57FD08C01182D3
:1002B0003382228224833583468357831DC081E0A5
:1002C00081833382228288279927DC01821B930B4A
:1002D000A40BB50B84839583A683B7830DC0220F2F
:1002E000331F441F551F24833583468357838281E0
:1002F000938101979383828324813581468157813D
:10030000DA01C9010197A109B1098F5F9F4FAF4F72
:10031000BF4328F30BC0918333822282EA0CFB1C7B
:100320000C1D1D1DE482F5820683178383E0808304
:10033000248135814681578157FF1AC0C901AA27F8
:1003400097FDA095BA2F81709070A070B0705695EF
:10035000479537952795822B932BA42BB52B848318
:100360009583A683B7838281938101969383828349
:10037000DF0101C0D201CD01CDB7DEB7E2E10C94BF
:100380008A16A0E2B0E0E7ECF1E00C947A166983FB
:100390007A838B839C832D833E834F835887E9E048
:1003A000EE2EF12CEC0EFD1ECE010196B7010E943F
:1003B000FB058E010F5E1F4FCE010596B8010E940E
:1003C000FB058A8991E089278A8BC701B801AE01B4
:1003D000475E5F4F0E9475000E942605A096E6E0EA
:1003E0000C949616A0E2B0E0E8EFF1E00C947A16D7
:1003F00069837A838B839C832D833E834F835887C5
:10040000F9E0EF2EF12CEC0EFD1ECE010196B701A6
:100410000E94FB058E010F5E1F4FCE010596B801AD
:100420000E94FB05C701B801AE01475E5F4F0E9405
:1004300075000E942605A096E6E00C949616A0E2B0
:10044000B0E0E5E2F2E00C946E1669837A838B8368
:100450009C832D833E834F835887CE010196BE0136
:10046000675F7F4F0E94FB05CE010596BE016F5E60
:100470007F4F0E94FB059985923088F089898230F0
:10048000C8F0943019F4823051F404C0843029F457
:10049000923081F480E690E0C6C0923049F420E0CA
:1004A0009A858A89981321E02A87CE010996BBC0D4
:1004B000823049F420E09A858A89981321E02A8BBA
:1004C000CE014196B0C02D843E844F8458886D88FB
:1004D0007E888F88988CEE24FF248701AA24BB2471
:1004E000650140E050E060E070E0E0E0F0E0C10174
:1004F00081709070892BE9F0E60CF71C081D191D1E
:100500009A01AB012A0D3B1D4C1D5D1D80E090E062
:10051000A0E0B0E0E614F7040805190520F481E036
:1005200090E0A0E0B0E0BA01A901480F591F6A1F8E
:100530007B1FAA0CBB1CCC1CDD1C97FE08C081E0F5
:1005400090E0A0E0B0E0A82AB92ACA2ADB2A3196B6
:10055000E032F10549F0660C771C881C991C569412
:10056000479437942794C3CFFA85EA892B893C892D
:100570008B859C85280F391F2E5F3F4F17C0CA01FE
:1005800081709070892B61F016950795F794E79428
:1005900080E090E0A0E0B0E8E82AF92A0A2B1B2BC3
:1005A00076956795579547952F5F3F4F77FDE7CF36
:1005B0000CC0440F551F661F771F17FD4160EE0CDE
:1005C000FF1C001F111F21503040403090E05907A0
:1005D00090E0690790E4790760F32B8F3C8FDB0193
:1005E000CA018F779070A070B07080349105A1051A
:1005F000B10561F447FD0AC0E114F10401051105DC
:1006000029F0405C5F4F6F4F7F4F40781A8EFE1786
:1006100011F081E08A8F4D8F5E8F6F8F78A383E01A
:10062000898FCE0149960E942605A096E2E10C949E
:100630008A16A8E1B0E0EFE1F3E00C947616698346
:100640007A838B839C832D833E834F835887B9E0C5
:10065000EB2EF12CEC0EFD1ECE010196B7010E948F
:10066000FB058E010F5E1F4FCE010596B8010E945B
:10067000FB052985223008F47EC03989323010F418
:10068000B8017CC08A859A8989278A87243011F02D
:10069000223031F4231709F06EC060E670E06EC0BE
:1006A000343039F41D861E861F86188A1C861B86E8
:1006B00004C0323021F484E08987B7015FC02B8504
:1006C0003C858B899C89281B390B3C872B87ED84C3
:1006D000FE840F851889AD88BE88CF88D88CEA142F
:1006E000FB040C051D0540F4EE0CFF1C001F111F40
:1006F000215030403C872B8720E030E040E050E044
:1007000080E090E0A0E0B0E460E070E0EA14FB0478
:100710000C051D0540F0282B392B4A2B5B2BEA18C2
:10072000FB080C091D09B695A79597958795EE0CC2
:10073000FF1C001F111F6F5F7F4F6F31710531F775
:10074000DA01C9018F779070A070B0708034910584
:10075000A105B10561F427FD0AC0E114F10401050A
:10076000110529F0205C3F4F4F4F5F4F20782D87B8
:100770003E874F87588BBE01675F7F4FCB010E943A
:1007800026056896EAE00C949216A8E1B0E0EBEC3E
:10079000F3E00C947A1669837A838B839C832D8390
:1007A0003E834F83588789E0E82EF12CEC0EFD1E26
:1007B000CE010196B7010E94FB058E010F5E1F4F0F
:1007C000CE010596B8010E94FB058985823040F074
:1007D0008989823028F0C701B8010E94730601C0E0
:1007E0008FEF6896E6E00C949616A8E1B0E0EBEF88
:1007F000F3E00C947A1669837A838B839C832D8330
:100800003E834F83588789E0E82EF12CEC0EFD1EC5
:10081000CE010196B7010E94FB058E010F5E1F4FAE
:10082000CE010596B8010E94FB058985823040F013
:100830008989823028F0C701B8010E94730601C07F
:1008400081E06896E6E00C949616A8E0B0E0EBE252
:10085000F4E00C9477169B01AC0183E08983DA0104
:10086000C9018827B7FD83959927AA27BB27B82EEA
:10087000211531054105510519F482E089833AC0FB
:100880008823A9F0203080E0380780E0480780E81E
:10089000580729F460E070E080E09FEC30C0EE245F
:1008A000FF248701E21AF30A040B150B02C0790139
:1008B0008A018EE1C82ED12CDC82CB82ED82FE82B1
:1008C0000F831887C801B7010E94D7040197181633
:1008D000190684F4082E04C0EE0CFF1C001F111F23
:1008E0000A94D2F7ED82FE820F831887C81AD90ABC
:1008F000DC82CB82BA82CE0101960E942605289620
:10090000E9E00C949316ACE0B0E0E9E8F4E00C9474
:100910007E1669837A838B839C83CE010196BE0108
:100920006B5F7F4F0E94FB058D81823061F18230C9
:1009300050F1843021F48E81882351F12EC02F8113
:10094000388537FD20C06E812F3131051CF06623BC
:10095000F9F023C08EE190E0821B930B29853A8544
:100960004B855C8504C056954795379527958A95A4
:10097000D2F76623B1F050954095309521953F4FC1
:100980004F4F5F4F0EC020E030E040E050E009C024
:100990002FEF3FEF4FEF5FE704C020E030E040E093
:1009A00050E8B901CA012C96E2E00C949A16EF9235
:1009B000FF920F931F937B018C0180E0E81680E08B
:1009C000F80681E0080780E0180788F48FEFE81642
:1009D000F1040105110531F028F088E090E0A0E075
:1009E000B0E017C080E090E0A0E0B0E012C080E08E
:1009F000E81680E0F80680E0080781E0180728F094
:100A000088E190E0A0E0B0E004C080E190E0A0E0E8
:100A1000B0E020E230E040E050E0281B390B4A0B08
:100A20005B0B04C016950795F794E7948A95D2F767
:100A3000F701E859FF4F8081281B3109410951090D
:100A4000C9011F910F91FF90EF900895DF92EF92EF
:100A5000FF920F931F93FC01E480F58006811781BC
:100A6000D1808081823048F480E090E0A0E1B0E065
:100A7000E82AF92A0A2B1B2BA5C0843009F49FC051
:100A8000823021F4EE24FF24870105C0E114F10433
:100A90000105110519F4E0E0F0E096C06281738170
:100AA0009FEF623879070CF05BC022E83FEF261B0E
:100AB000370B2A3131052CF020E030E040E050E0E7
:100AC0002AC0B801A701022E04C0769567955795F4
:100AD00047950A94D2F781E090E0A0E0B0E004C02E
:100AE000880F991FAA1FBB1F2A95D2F70197A1094A
:100AF000B1098E219F21A023B1230097A105B10543
:100B000021F081E090E0A0E0B0E09A01AB01282B59
:100B1000392B4A2B5B2BDA01C9018F779070A070BB
:100B2000B07080349105A105B10539F427FF09C0E3
:100B3000205C3F4F4F4F5F4F04C0215C3F4F4F4FF2
:100B40005F4FE0E0F0E02030A0E03A07A0E04A0785
:100B5000A0E45A0710F0E1E0F0E079018A0127C033
:100B60006038710564F5FB01E158FF4FD801C701FA
:100B70008F779070A070B07080349105A105B10599
:100B800039F4E7FE0DC080E490E0A0E0B0E004C0DE
:100B90008FE390E0A0E0B0E0E80EF91E0A1F1B1FF3
:100BA00017FF05C016950795F794E794319687E0EF
:100BB00016950795F794E7948A95D1F705C0EE242A
:100BC000FF248701EFEFF0E06E2F679566276795AA
:100BD000902F9F77D794DD24D7948E2F8695492F19
:100BE000462B582F5D29B701CA011F910F91FF9025
:100BF000EF90DF900895FC01DB014081518122815B
:100C0000622F6F7770E0221F2227221F9381892F86
:100C1000880F822B282F30E0991F9927991F119652
:100C20009C93119721153105A9F5411551056105D1
:100C3000710511F482E037C082E89FEF13969C9310
:100C40008E9312979A01AB0167E0220F331F441F66
:100C5000551F6A95D1F783E08C930DC0220F331F87
:100C6000441F551F12968D919C91139701971396CF
:100C70009C938E931297203080E0380780E04807DD
:100C800080E4580758F314962D933D934D935C934D
:100C9000179708952F3F310579F4411551056105E6
:100CA000710519F484E08C93089564FF03C081E01A
:100CB0008C9312C01C9210C02F57304013963C9357
:100CC0002E93129783E08C9387E0440F551F661F85
:100CD000771F8A95D1F7706414964D935D936D9349
:100CE0007C93179708951F93DC01FB019C91923030
:100CF00008F447C08081823008F443C0943051F436
:100D000011961C91843099F58181682F70E0611BE8
:100D100071093FC0843021F0923031F48230B9F152
:100D20008181882389F12DC011961C911197823001
:100D3000F1F081811817D9F412962D913C911397F7
:100D4000828193818217930794F028173907BCF0AA
:100D500014968D919D910D90BC91A02D248135818B
:100D600046815781281739074A075B0718F4112372
:100D700041F00AC082179307A407B50740F4112376
:100D800019F061E070E005C06FEF7FEF02C060E036
:100D900070E0CB011F910895EF92FF920F931F9384
:100DA000DF93CF93CDB7DEB760970FB6F894DEBF71
:100DB0000FBECDBF6B877C878D879E878B859C857B
:100DC000AD85BE859E012C5F3F4FBC01CD01A901C1
:100DD0000E9445098823B9F0EC81FD81CE0104967B
:100DE000BC016E5F7F4F2B853C854D855E85CF01B5
:100DF0000E94D30980E090E0A0E0B0E08F83988764
:100E0000A987BA8715C080E094E09D838C836B85A9
:100E10007C858D859E852CEE31E143E853E40E946C
:100E20001903DC01CB018F839887A987BA871E82BB
:100E30008F819885A985BA85BC01CD010E944900A2
:100E4000DC01CB018B83EF80F88409851A858B81C7
:100E5000882F90E0AA2797FDA095BA2FBC01CD015D
:100E60000E9425049B01AC01C801B7010E94C10189
:100E7000DC01CB01BC01CD012CEE31E143E853E4B0
:100E80000E941F02DC01CB01BC01CD010E94490080
:100E9000DC01CB018A838B818983E2E5F0E08E81DE
:100EA00080838981882371F48C819D810E94BA0A94
:100EB000E8E5F0E08081882F90E0817090700097E5
:100EC000B9F3CCC1E3E5F0E085E8808313C0E8E541
:100ED000F0E08081882F90E0817090700097B9F3E6
:100EE000898181508983A8E5B0E0E8E5F0E0808160
:100EF00081608C938981882351F78A81882309F442
:100F00008EC08A81882F90E0AA2797FDA095BA2FDE
:100F1000BC01CD010E942504DC01CB01BC01CD0147
:100F200028EB3EE145E85EE30E94F50318162CF03D
:100F300081E090E09D838C8372C08A81882F90E04D
:100F4000AA2797FDA095BA2FBC01CD010E942504C8
:100F5000DC01CB01BC01CD0123E333E343E050E4EA
:100F60000E94F50318162CF088E090E09D838C8396
:100F700056C08A81882F90E0AA2797FDA095BA2FA6
:100F8000BC01CD010E942504DC01CB01BC01CD01D7
:100F90002DE33AE043E851E40E94F50318162CF0E3
:100FA00080E490E09D838C833AC08A81882F90E012
:100FB000AA2797FDA095BA2FBC01CD010E94250458
:100FC000DC01CB01BC01CD012BE734E143E852E465
:100FD0000E94F50318162CF080E091E09D838C832D
:100FE0001EC08A81882F90E0AA2797FDA095BA2F6E
:100FF000BC01CD010E942504DC01CB01BC01CD0167
:101000002CEE31E143E853E40E94F50318162CF06E
:1010100080E094E09D838C8302C01D821C828C81C1
:101020009D81988B8F87EF85F889E034F10509F46D
:101030007CC08F8598898134910560F4EF85F889AB
:10104000E130F105B1F08F8598898830910509F478
:101050003EC0F5C0EF85F88921E0E030F20709F4E1
:1010600092C08F859889E4E080309E0709F4B9C06A
:10107000E6C002E510E08A81882F90E0AA2797FD5C
:10108000A095BA2FBC01CD010E9425049B01AC01A3
:1010900068EB7EE185E89EE30E94C101DC01CB01A3
:1010A000BC01CD012FE632E143E85AE30E94190367
:1010B000DC01CB01BC01CD010E944900DC01CB0168
:1010C000F8018083E3E5F0E081E88083BEC002E5BB
:1010D00010E08A81882F90E0AA2797FDA095BA2F6B
:1010E000BC01CD010E9425049B01AC0163E373E3C5
:1010F00083E090E40E94C101DC01CB01BC01CD0181
:101100002FE632E143E05CE30E941903DC01CB01EE
:10111000BC01CD010E944900DC01CB01F8018083B4
:10112000E3E5F0E082E8808390C002E510E08A8188
:10113000882F90E0AA2797FDA095BA2FBC01CD017A
:101140000E9425049B01AC016DE37AE083E891E401
:101150000E94C101DC01CB01BC01CD012FE632E1CF
:1011600043E85DE30E941903DC01CB01BC01CD0122
:101170000E944900DC01CB01F8018083E3E5F0E047
:1011800083E8808362C002E510E08A81882F90E0C6
:10119000AA2797FDA095BA2FBC01CD010E94250476
:1011A0009B01AC016BE774E183E892E40E94C1010A
:1011B000DC01CB01BC01CD012FE632E143E85EE367
:1011C0000E941903DC01CB01BC01CD010E94490042
:1011D000DC01CB01F8018083E3E5F0E084E8808363
:1011E00034C002E510E08A81882F90E0AA2797FD9D
:1011F000A095BA2FBC01CD010E9425049B01AC0132
:101200006CEE71E183E893E40E94C101DC01CB0143
:10121000BC01CD012FE632E143E85FE30E941903F0
:10122000DC01CB01BC01CD010E944900DC01CB01F6
:10123000F8018083E3E5F0E085E8808306C0E2E51D
:10124000F0E01082E3E5F0E01082E8E5F0E0808174
:10125000882F90E0817090700097B9F3A8E5B0E016
:10126000E8E5F0E0808181608C93E3E5F0E01082B6
:1012700060960FB6F894DEBF0FBECDBFCF91DF9161
:101280001F910F91FF90EF900895DF93CF93CDB70B
:10129000DEB727970FB6F894DEBF0FBECDBF6983C8
:1012A0007A838B839C835E834D8369817A818B8172
:1012B0009C812CEE31E143E853E40E94F5031816BB
:1012C0000CF466C069817A818B819C8128EB3EE1B8
:1012D00045E85EE30E94F50318163CF0ED81FE81BF
:1012E00081E090E09183808350C069817A818B8115
:1012F0009C8123E333E343E050E40E94F503181696
:101300003CF0ED81FE8188E090E0918380833DC0D8
:1013100069817A818B819C812DE33AE043E851E435
:101320000E94F50318163CF0ED81FE8180E490E008
:10133000918380832AC069817A818B819C812BE78C
:1013400034E143E852E40E94F50318163CF0ED81C5
:10135000FE8180E091E09183808317C069817A816A
:101360008B819C812CEE31E143E853E40E94F5032C
:1013700018163CF0ED81FE8180E094E0918380833B
:1013800004C0ED81FE811182108281E08F8301C053
:101390001F828F8127960FB6F894DEBF0FBECDBF98
:1013A000CF91DF910895DF93CF93CDB7DEB72A9722
:1013B0000FB6F894DEBF0FBECDBF9A8389837C83BE
:1013C0006B832D833E834F83588789819A819A87C7
:1013D000898789859A858034910509F45FC089855C
:1013E0009A858134910558F489859A8581309105D3
:1013F000A9F089859A858830910581F1AFC08985EA
:101400009A8521E08030920709F468C089859A8521
:1014100024E08030920709F481C0A0C068EB7EE12F
:1014200085E89EE32D813E814F8158850E94C10150
:10143000DC01CB01BC01CD012FE632E143E85AE3E8
:101440000E941903DC01CB01BC01CD010E944900BF
:10145000DC01CB01EB81FC81808383C063E373E318
:1014600083E090E42D813E814F8158850E94C10127
:10147000DC01CB01BC01CD012FE632E143E05CE3AE
:101480000E941903DC01CB01BC01CD010E9449007F
:10149000DC01CB01EB81FC81808363C06DE37AE0EA
:1014A00083E891E42D813E814F8158850E94C101DE
:1014B000DC01CB01BC01CD012FE632E143E85DE365
:1014C0000E941903DC01CB01BC01CD010E9449003F
:1014D000DC01CB01EB81FC81808343C06BE774E1CD
:1014E00083E892E42D813E814F8158850E94C1019D
:1014F000DC01CB01BC01CD012FE632E143E85EE324
:101500000E941903DC01CB01BC01CD010E944900FE
:10151000DC01CB01EB81FC81808323C06CEE71E1A7
:1015200083E893E42D813E814F8158850E94C1015B
:10153000DC01CB01BC01CD012FE632E143E85FE3E2
:101540000E941903DC01CB01BC01CD010E944900BE
:10155000DC01CB01EB81FC81808303C0EB81FC814A
:1015600010822A960FB6F894DEBF0FBECDBFCF9182
:10157000DF910895DF93CF9300D000D0CDB7DEB7D1
:101580009A83898389819A819C838B838B819C81B7
:101590008034910539F18B819C818134910558F417
:1015A0008B819C818130910599F08B819C81883061
:1015B000910599F026C08B819C8121E080309207B3
:1015C000B1F08B819C8124E080309207A9F019C092
:1015D000E3E5F0E081E8808317C0E3E5F0E082E82E
:1015E000808312C0E3E5F0E083E880830DC0E3E58B
:1015F000F0E084E8808308C0E3E5F0E085E88083DC
:1016000003C0E3E5F0E010820F900F900F900F9071
:10161000CF91DF910895DF93CF93CDB7DEB7E4E4A8
:10162000F0E01082A1E3B0E0E1E3F0E080818068C7
:101630008C93E5E4F0E088E68083CF91DF91089514
:10164000DF93CF930F92CDB7DEB789838981482F7F
:1016500050E0CA019C01220F331FC9019695982FB3
:10166000882797958795821B930B840F951F24E6F7
:1016700030E0B9010E944716CB018983E3E4F0E032
:1016800089818083A5E4B0E0E5E4F0E080818260B8
:101690008C930F90CF91DF910895DF93CF93CDB7C7
:1016A000DEB7E5E4F0E01082CF91DF910895DF939B
:1016B000CF9300D000D000D0CDB7DEB789836A8346
:1016C0004B838981843018F48A81883010F01E821F
:1016D000D6C08981282F30E03D832C838C819D8169
:1016E0008130910509F443C02C813D8122303105C0
:1016F0002CF48C819D81009771F0BDC02C813D81BF
:101700002230310509F45FC08C819D8183309105C1
:1017100009F485C0B0C08B818130A1F4AAE3B0E0A8
:10172000EAE3F0E08081482F8A81282F30E081E0D1
:1017300090E0022E02C0880F991F0A94E2F7842BD2
:101740008C939BC0AAE3B0E0EAE3F0E08081482FED
:101750008A81282F30E081E090E0022E02C0880FBD
:10176000991F0A94E2F7809584238C9386C08B811D
:101770008130A1F4A7E3B0E0E7E3F0E08081482FF7
:101780008A81282F30E081E090E0022E02C0880F8D
:10179000991F0A94E2F7842B8C936FC0A7E3B0E003
:1017A000E7E3F0E08081482F8A81282F30E081E054
:1017B00090E0022E02C0880F991F0A94E2F78095EC
:1017C00084238C935AC08B818130A1F4A4E3B0E0D0
:1017D000E4E3F0E08081482F8A81282F30E081E027
:1017E00090E0022E02C0880F991F0A94E2F7842B22
:1017F0008C9343C0A4E3B0E0E4E3F0E08081482FA1
:101800008A81282F30E081E090E0022E02C0880F0C
:10181000991F0A94E2F7809584238C932EC08B81C4
:101820008130A1F4A1E3B0E0E1E3F0E08081482F52
:101830008A81282F30E081E090E0022E02C0880FDC
:10184000991F0A94E2F7842B8C9317C0A1E3B0E0B0
:10185000E1E3F0E08081482F8A81282F30E081E0A9
:1018600090E0022E02C0880F991F0A94E2F780953B
:1018700084238C9302C01E8202C091E09E838E81DD
:1018800026960FB6F894DEBF0FBECDBFCF91DF9185
:101890000895DF93CF9300D000D000D0CDB7DEB74E
:1018A00089836A834B838981843018F48A818830E4
:1018B00010F01E82D6C08981282F30E03D832C8312
:1018C0008C819D818130910509F443C02C813D813B
:1018D000223031052CF48C819D81009771F0BDC0C0
:1018E0002C813D812230310509F45FC08C819D81BE
:1018F0008330910509F485C0B0C08B818130A1F49B
:10190000ABE3B0E0EBE3F0E08081482F8A81282F41
:1019100030E081E090E0022E02C0880F991F0A9407
:10192000E2F7842B8C939BC0ABE3B0E0EBE3F0E0F9
:101930008081482F8A81282F30E081E090E0022EBC
:1019400002C0880F991F0A94E2F7809584238C9334
:1019500086C08B818130A1F4A8E3B0E0E8E3F0E039
:101960008081482F8A81282F30E081E090E0022E8C
:1019700002C0880F991F0A94E2F7842B8C936FC0E2
:10198000A8E3B0E0E8E3F0E08081482F8A81282FC7
:1019900030E081E090E0022E02C0880F991F0A9487
:1019A000E2F7809584238C935AC08B818130A1F417
:1019B000A5E3B0E0E5E3F0E08081482F8A81282F9D
:1019C00030E081E090E0022E02C0880F991F0A9457
:1019D000E2F7842B8C9343C0A5E3B0E0E5E3F0E0AD
:1019E0008081482F8A81282F30E081E090E0022E0C
:1019F00002C0880F991F0A94E2F7809584238C9384
:101A00002EC08B818130A1F4A2E3B0E0E2E3F0E0EC
:101A10008081482F8A81282F30E081E090E0022EDB
:101A200002C0880F991F0A94E2F7842B8C9317C089
:101A3000A2E3B0E0E2E3F0E08081482F8A81282F22
:101A400030E081E090E0022E02C0880F991F0A94D6
:101A5000E2F7809584238C9302C01E8202C091E03D
:101A60009E838E8126960FB6F894DEBF0FBECDBF43
:101A7000CF91DF910895DF93CF93CDB7DEB727974E
:101A80000FB6F894DEBF0FBECDBF89836A835C8337
:101A90004B838981843018F48A81883010F01F824A
:101AA00096C08981282F30E03E832D834D815E8151
:101AB00041305105A1F18D819E818230910534F430
:101AC0002D813E812115310571F07DC04D815E81F2
:101AD0004230510509F43FC08D819E8183309105CC
:101AE00009F455C070C0E9E3F0E08081282F30E0B0
:101AF0008A81882F90E0A90102C0559547958A9563
:101B0000E2F7CA0181709070882329F0EB81FC8193
:101B100081E080835AC0EB81FC81108256C0E6E3ED
:101B2000F0E08081282F30E08A81882F90E0A901A1
:101B300002C0559547958A95E2F7CA018170907069
:101B4000882329F0EB81FC8181E080833EC0EB811A
:101B5000FC8110823AC0E3E3F0E08081282F30E07E
:101B60008A81882F90E0A90102C0559547958A95F2
:101B7000E2F7CA0181709070882329F0EB81FC8123
:101B800081E0808322C0EB81FC8110821EC0E0E3F3
:101B9000F0E08081282F30E08A81882F90E0A90131
:101BA00002C0559547958A95E2F7CA0181709070F9
:101BB000882329F0EB81FC8181E0808306C0EB81E2
:101BC000FC81108202C01F8202C051E05F838F81BE
:101BD00027960FB6F894DEBF0FBECDBFCF91DF9131
:101BE0000895DF93CF9300D000D00F92CDB7DEB72A
:101BF00089836A838981843018F48A81883010F05F
:101C00001D8273C08981282F30E03C832B838B8118
:101C10009C818130910549F12B813C812230310535
:101C20002CF48B819C81009761F05BC02B813C81FF
:101C30002230310571F18B819C8183309105E9F16E
:101C400050C0ABE3B0E0EBE3F0E08081482F8A8145
:101C5000282F30E081E090E0022E02C0880F991F0B
:101C60000A94E2F784278C933EC0A8E3B0E0E8E34F
:101C7000F0E08081482F8A81282F30E081E090E0D9
:101C8000022E02C0880F991F0A94E2F784278C93D2
:101C90002AC0A5E3B0E0E5E3F0E08081482F8A8127
:101CA000282F30E081E090E0022E02C0880F991FBB
:101CB0000A94E2F784278C9316C0A2E3B0E0E2E333
:101CC000F0E08081482F8A81282F30E081E090E089
:101CD000022E02C0880F991F0A94E2F784278C9382
:101CE00002C01D8202C091E09D838D810F900F90F4
:101CF0000F900F900F90CF91DF910895DF93CF93C6
:101D000000D000D0CDB7DEB79A8389837C836B8304
:101D1000E981FA818081883020F4EB81FC81108296
:101D200045C0E981FA818081883088F0E981FA81B3
:101D30008081803160F4E981FA8180818850E98175
:101D4000FA818083EB81FC8181E080832FC0E9816F
:101D5000FA818081803188F0E981FA81808188313F
:101D600060F4E981FA8180818051E981FA81808380
:101D7000EB81FC8182E0808319C0E981FA8188E1EE
:101D80008083E981FA818081803260F4E981FA817F
:101D900080818851E981FA818083EB81FC8183E035
:101DA000808304C0EB81FC8184E080830F900F90DE
:101DB0000F900F90CF91DF910895DF93CF93CDB720
:101DC000DEB72A970FB6F894DEBF0FBECDBF9A8359
:101DD0008983AFE5B0E0EFE5F0E080818F778C9309
:101DE000E981FA818081282F30E03A872987898527
:101DF0009A858130910509F476C029853A8522308B
:101E0000310509F4DBC089859A85009709F005C181
:101E1000A1E3B0E0E1E3F0E080818B7F8C93ABE560
:101E2000B0E0EBE5F0E0808180648C93E981FA8199
:101E30008181282F30E038872F838F8198858130EA
:101E4000910521F12F813885223031052CF48F81C5
:101E50009885009761F0E1C02F81388522303105E7
:101E600021F18F8198858330910571F1D6C0A5E568
:101E7000B0E0E5E5F0E080818E7F8C93A5E5B0E0F1
:101E8000E5E5F0E080818D7F8C93C7C0A5E5B0E0EB
:101E9000E5E5F0E0808181608C93A5E5B0E0E5E5C3
:101EA000F0E080818D7F8C93B8C0A5E5B0E0E5E5DA
:101EB000F0E080818E7F8C93A5E5B0E0E5E5F0E071
:101EC000808182608C93A9C0A5E5B0E0E5E5F0E0F3
:101ED000808181608C93A5E5B0E0E5E5F0E080814C
:101EE00082608C939AC0A1E3B0E0E1E3F0E08081EE
:101EF000877F8C93ABE5B0E0EBE5F0E08081806814
:101F00008C93E981FA818181282F30E03E832D83F3
:101F10008D819E818130910521F12D813E8122307C
:101F200031052CF48D819E81009761F076C02D8162
:101F30003E812230310521F18D819E8183309105D2
:101F400071F16BC0A5E5B0E0E5E5F0E080818B7F45
:101F50008C93A5E5B0E0E5E5F0E08081877F8C9388
:101F60005CC0A5E5B0E0E5E5F0E0808184608C939D
:101F7000A5E5B0E0E5E5F0E08081877F8C934DC07A
:101F8000A5E5B0E0E5E5F0E080818B7F8C93A5E5E9
:101F9000B0E0E5E5F0E0808188608C933EC0A5E587
:101FA000B0E0E5E5F0E0808184608C93A5E5B0E0E9
:101FB000E5E5F0E0808188608C932FC0A7E3B0E076
:101FC000E7E3F0E08081877F8C93ABE5B0E0EBE561
:101FD000F0E0808180628C93E981FA818181282FF1
:101FE00030E03C832B838B819C818230910531F0E2
:101FF0002B813C812330310549F00FC0A4E5B0E0CE
:10200000E4E5F0E080818F7B8C9307C0A4E5B0E02D
:10201000E4E5F0E0808180648C93AFE5B0E0EFE52B
:10202000F0E0808180688C932A960FB6F894DEBF2A
:102030000FBECDBFCF91DF910895DF93CF9300D036
:10204000CDB7DEB79A83898389819A81909376018F
:10205000809375010F900F90CF91DF910895DF93DA
:10206000CF9300D0CDB7DEB79A83898389819A81D7
:1020700090937801809377010F900F90CF91DF912B
:102080000895DF93CF9300D0CDB7DEB79A838983CD
:1020900089819A8190937A01809379010F900F90B2
:1020A000CF91DF910895DF93CF9300D000D0CDB7CB
:1020B000DEB79A838983AFE5B0E0EFE5F0E0808199
:1020C0008F778C93E981FA818081282F30E03C83DF
:1020D0002B838B819C818130910589F02B813C8100
:1020E00022303105A1F08B819C810097B9F4ABE5DA
:1020F000B0E0EBE5F0E080818F7B8C930FC0ABE527
:10210000B0E0EBE5F0E080818F778C9307C0ABE522
:10211000B0E0EBE5F0E080818F7D8C93AFE5B0E03F
:10212000EFE5F0E0808180688C930F900F900F9026
:102130000F90CF91DF9108951F920F920FB60F92DB
:1021400011242F933F934F935F936F937F938F93BC
:102150009F93AF93BF93EF93FF93DF93CF93CDB74D
:10216000DEB78091750190917601009729F0E0919A
:102170007501F09176010995CF91DF91FF91EF9173
:10218000BF91AF919F918F917F916F915F914F918F
:102190003F912F910F900FBE0F901F9018951F9297
:1021A0000F920FB60F9211242F933F934F935F938B
:1021B0006F937F938F939F93AF93BF93EF93FF930F
:1021C000DF93CF93CDB7DEB78091770190917801FF
:1021D000009729F0E0917701F09178010995CF916E
:1021E000DF91FF91EF91BF91AF919F918F917F917F
:1021F0006F915F914F913F912F910F900FBE0F9074
:102200001F9018951F920F920FB60F9211242F93C3
:102210003F934F935F936F937F938F939F93AF936E
:10222000BF93EF93FF93DF93CF93CDB7DEB780914A
:10223000790190917A01009729F0E0917901F0916C
:102240007A010995CF91DF91FF91EF91BF91AF9105
:102250009F918F917F916F915F914F913F912F91BE
:102260000F900FBE0F901F901895DF93CF9300D063
:102270000F92CDB7DEB78A838A818032B8F4CE015F
:1022800002969E012F5F3F4FB9010E947E0E898109
:102290009A81692F41E00E94570B89819A81692FA9
:1022A00040E00E94490C81E08B8301C01B828B813E
:1022B0000F900F900F90CF91DF910895DF93CF9300
:1022C00000D000D0CDB7DEB78A836B838A8180329D
:1022D000D8F4CE0102969E012F5F3F4FB9010E94B4
:1022E0007E0E8B81882339F489819A81692F40E0A1
:1022F0000E94490C06C089819A81692F41E00E94A1
:10230000490C81E08C8301C01C828C810F900F905E
:102310000F900F90CF91DF910895DF93CF9300D06E
:1023200000D00F92CDB7DEB79C838B83EB81FC810D
:1023300080818032D0F5EB81FC8181818032A8F5EB
:10234000EB81FC8180818A83CE0102969E012F5F02
:102350003F4FB9010E947E0E89819A81692F41E029
:102360000E94570B89819A81692F40E00E94490C95
:10237000EB81FC8181818A83CE0102969E012F5FD1
:102380003F4FB9010E947E0E89819A81692F41E0F9
:102390000E94570B89819A81692F40E00E94490C65
:1023A0000E940B0B81E08D8301C01D828D810F90F7
:1023B0000F900F900F900F90CF91DF910895DF93C2
:1023C000CF9300D000D000D0CDB7DEB79C838B83F5
:1023D0006D834E838E810E94200B8D81882329F589
:1023E000EB81FC8180818A83CE0102969E012F5F62
:1023F0003F4FB9010E947E0E89819A81692F40E08A
:102400000E94490CEB81FC8181818A83CE01029676
:102410009E012F5F3F4FB9010E947E0E89819A81F4
:10242000692F41E00E94490C4CC08D81813029F513
:10243000EB81FC8180818A83CE0102969E012F5F11
:102440003F4FB9010E947E0E89819A81692F41E038
:102450000E94490CEB81FC8181818A83CE01029626
:102460009E012F5F3F4FB9010E947E0E89819A81A4
:10247000692F40E00E94490C24C0EB81FC818081DF
:102480008A83CE0102969E012F5F3F4FB9010E94C1
:102490007E0E89819A81692F40E00E94490CEB8170
:1024A000FC8181818A83CE0102969E012F5F3F4F7E
:1024B000B9010E947E0E89819A81692F40E00E94B5
:1024C000490C26960FB6F894DEBF0FBECDBFCF9154
:1024D000DF910895DF93CF9300D000D0CDB7DEB762
:1024E0009C838B830E944D0BEB81FC8180818A83CE
:1024F000CE0102969E012F5F3F4FB9010E947E0ED2
:1025000089819A81692F40E00E94490CEB81FC810E
:1025100081818A83CE0102969E012F5F3F4FB901D0
:102520000E947E0E89819A81692F40E00E94490CA9
:102530000F900F900F900F90CF91DF910895DF9340
:10254000CF9300D000D0CDB7DEB78A836B838A816A
:10255000803208F5CE0102969E012F5F3F4FB901F0
:102560000E947E0E89819A81692F40E00E94570B5C
:102570008B81813039F489819A81692F41E00E94F1
:10258000490C06C089819A81692F40E00E94490C5C
:1025900081E08C8301C01C828C810F900F900F9082
:1025A0000F90CF91DF910895DF93CF9300D000D0AB
:1025B0000F92CDB7DEB78B837D836C83CE010396FC
:1025C0009E012F5F3F4FB9010E947E0E89819B8142
:1025D0009E012E5F3F4F692FA9010E943B0D8A810A
:1025E000EC81FD81808381E00F900F900F900F9020
:1025F0000F90CF91DF910895EF920F93DF93CF93D8
:1026000000D000D000D0CDB7DEB719821B8283E0A6
:102610008C83809170010E943511809171010E941C
:102620003511809172010E943511809173010E94D1
:102630003511898160E00E949F12CE0103960E94AD
:10264000DD0E85E296E10E941D109E012E5F3F4F38
:102650008981B9010E94D4128A818130E9F4809184
:102660007B018823C9F488E691E00E948D118AE6F7
:1026700091E00E948D118CE691E00E948D118EE612
:1026800091E00E948D1181E080937B0160E070E019
:102690008AE794E40E94CC0680917B01282F30E0E9
:1026A0003E832D838D819E818430910509F4D2C0B3
:1026B0002D813E812530310594F48D819E818230BB
:1026C000910509F45CC02D813E81233031050CF069
:1026D0008AC08D819E8181309105D1F0C5C12D8147
:1026E0003E812630310509F420C18D819E818630DE
:1026F00091050CF4E3C02D813E812730310509F4AA
:1027000048C18D819E818830910509F479C1ACC1A1
:1027100082E080937B018091680190916901209112
:102720006A0130916B0140916C0150916D01E09113
:102730006E01F0916F01B9019F0100E00F2EF2E3ED
:10274000EF2EF02D0E9461158091700161E00E94D2
:102750005E118091710160E00E945E1180917201B2
:1027600060E00E945E118091730160E00E945E1142
:1027700060E070E88BE395E40E94CC0666CF83E0CE
:1027800080937B01809168019091690120916A0199
:1027900030916B0140916C0150916D01E0916E019F
:1027A000F0916F01B9019F0104E0EE240E946115D0
:1027B0008091700160E00E945E118091710161E082
:1027C0000E945E118091720160E00E945E11809112
:1027D000730160E00E945E1160E070E08AEF93E4B4
:1027E0000E94CC0632CF84E080937B018091680107
:1027F0009091690120916A0130916B0140916C01C7
:1028000050916D01E0916E01F0916F01B9019F014E
:1028100002E00F2EF2E3EF2EF02D0E946115809161
:10282000700160E00E945E118091710160E00E9481
:102830005E118091720161E00E945E1180917301CE
:1028400060E00E945E1160E070E08AEF93E40E9415
:10285000CC06FBCE85E080937B018091680190914E
:10286000690120916A0130916B0140916C01509196
:102870006D01E0916E01F0916F01B9019F0104E0DB
:10288000EE240E9461158091700160E00E945E114B
:102890008091710161E00E945E118091720160E09F
:1028A0000E945E118091730160E00E945E1160E001
:1028B00070E08AEF93E40E94CC06C7CE86E0809356
:1028C0007B01809168019091690120916A013091AA
:1028D0006B0140916C0150916D01E0916E01F0919E
:1028E0006F01B9019F0100E00F2EFEE1EF2EF02DE8
:1028F0000E9461158091700161E00E945E118091DB
:10290000710160E00E945E118091720160E00E949E
:102910005E118091730160E00E945E1160E070E0E2
:102920008AEF94E40E94CC0690CE87E080937B01EE
:10293000809168019091690120916A0130916B0149
:1029400040916C0150916D01E0916E01F0916F0129
:10295000B9019F0104E0EE240E946115809170018D
:1029600060E00E945E118091710161E00E945E1141
:102970008091720160E00E945E118091730160E0BD
:102980000E945E1160E070E08AEF93E40E94CC0642
:102990005CCE88E080937B01809168019091690111
:1029A00020916A0130916B0140916C0150916D0151
:1029B000E0916E01F0916F01B9019F0102E00F2ECD
:1029C000FEE1EF2EF02D0E9461158091700160E014
:1029D0000E945E118091710160E00E945E11809101
:1029E000720161E00E945E118091730160E00E94BB
:1029F0005E1160E070E08AEF93E40E94CC0625CE81
:102A000081E080937B018091680190916901209120
:102A10006A0130916B0140916C0150916D01E09120
:102A20006E01F0916F01B9019F0104E0EE240E9454
:102A300061158091700160E00E945E1180917101CA
:102A400061E00E945E118091720160E00E945E115F
:102A50008091730160E00E945E1160E070E08AEF97
:102A600093E40E94CC06F1CD10927B018091680125
:102A70009091690120916A0130916B0140916C0144
:102A800050916D01E0916E01F0916F01B9019F01CC
:102A900004E0EE240E9461158091700160E00E94C4
:102AA0005E118091710160E00E945E11809172015F
:102AB00060E00E945E118091730160E00E945E11EF
:102AC000C4CDEF920F93DF93CF93CDB7DEB72C97A2
:102AD0000FB6F894DEBF0FBECDBF9A8389837C8387
:102AE0006B835E834D8338872F830987EA868985C8
:102AF000282F30E03C872B878B859C858230910581
:102B000009F44EC02B853C852330310554F48B8568
:102B10009C85009799F02B853C852130310539F152
:102B200089C08B859C858330910509F452C02B8523
:102B30003C852430310509F465C07CC0CE01019686
:102B400060E04A850E94DF11CE01039660E04A856D
:102B50000E94DF11CE01059660E04A850E94DF11D8
:102B6000CE01079660E04A850E94DF1163C0CE0166
:102B7000019661E04A850E94DF11CE01039661E073
:102B80004A850E94DF11CE01059661E04A850E94C8
:102B9000DF11CE01079661E04A850E94DF114AC02D
:102BA000CE01019660E04A850E94DF11CE010396B6
:102BB00060E04A850E94DF11CE01059662E04A85F9
:102BC0000E94DF11CE01079662E04A850E94DF1164
:102BD00031C0CE01059660E04A850E94DF11CE012A
:102BE000079660E04A850E94DF11CE01019662E0FF
:102BF0004A850E94DF11CE01039662E04A850E9459
:102C0000DF1118C0CE01019662E04A850E94DF11F3
:102C1000CE01039662E04A850E94DF11CE0105963F
:102C200062E04A850E94DF11CE01079662E04A8584
:102C30000E94DF112C960FB6F894DEBF0FBECDBFF9
:102C4000CF91DF910F91EF900895DF93CF93CDB7A0
:102C5000DEB789E080937B0188E691E00E946A12EA
:102C60008091700160E00E945E118091710160E0CE
:102C70000E945E118091720160E00E945E1180915D
:102C8000730161E00E945E11CF91DF91089597FB7F
:102C9000092E07260AD077FD04D00CD006D00020DC
:102CA0001AF4709561957F4F0895F6F79095819588
:102CB0009F4F0895AA1BBB1B51E107C0AA1FBB1F52
:102CC000A617B70710F0A61BB70B881F991F5A95B8
:102CD000A9F780959095BC01CD0108952F923F9260
:102CE0004F925F926F927F928F929F92AF92BF921C
:102CF000CF92DF92EF92FF920F931F93CF93DF93C8
:102D0000CDB7DEB7CA1BDB0B0FB6F894DEBF0FBE24
:102D1000CDBF09942A88398848885F846E847D8471
:102D20008C849B84AA84B984C884DF80EE80FD8073
:102D30000C811B81AA81B981CE0FD11D0FB6F894E9
:0E2D4000DEBF0FBECDBFED010895F894FFCFAA
:102D4E000000000000000000000102020303030364
:102D5E00040404040404040405050505050505051D
:102D6E0005050505050505050606060606060606FD
:102D7E0006060606060606060606060606060606E5
:102D8E0006060606060606060707070707070707CD
:102D9E0007070707070707070707070707070707B5
:102DAE0007070707070707070707070707070707A5
:102DBE000707070707070707070707070707070795
:102DCE00070707070707070708080808080808087D
:102DDE000808080808080808080808080808080865
:102DEE000808080808080808080808080808080855
:102DFE000808080808080808080808080808080845
:102E0E000808080808080808080808080808080834
:102E1E000808080808080808080808080808080824
:102E2E000808080808080808080808080808080814
:102E3E000808080808080808080808080808080804
:102E4E000808080808080808101113121514171698
:042E5E0008090A0B4A
:00000001FF
